:020000040800F2
:10000000E0CF0020B502000885360008672B000805
:1000100081360008050C00084D450008000000006E
:100020000000000000000000000000001D020008A9
:10003000090C00080000000061020008893800086F
:10004000CF020008CF020008CF020008CF0200084C
:10005000CF020008CF020008CF020008CF0200083C
:10006000CF020008CF020008CF020008CF0200082C
:10007000CF020008CF020008CF020008CF0200081C
:10008000CF020008CF020008CF020008CF0200080C
:10009000CF020008CF020008CF020008CF020008FC
:1000A000CF020008CF020008CF020008CF020008EC
:1000B000CF020008CF020008CF020008CF020008DC
:1000C000CF020008CF020008CF020008CF020008CC
:1000D000CF0200083D450008CF020008CF0200080B
:1000E000CF020008CF020008CF020008CF020008AC
:1000F000CF020008CF020008CF020008CF0200089C
:10010000CF020008CF020008CF020008CF0200088B
:10011000CF020008CF020008F93B0008CF02000818
:10012000CF020008CF020008CF020008CF0200086B
:1001300000F002F800F062F80AA090E8000C824497
:100140008344AAF10107DA4501D100F057F8AFF274
:10015000090EBAE80F0013F0010F18BFFB1A43F0A5
:10016000010318476CBC03008CBC03000A444FF029
:10017000000C10F8013B13F0070408BF10F8014B06
:100180001D1108BF10F8015B641E05D010F8016B4B
:10019000641E01F8016BF9D113F0080F1EBF10F8AF
:1001A000014BAD1C0C1B09D16D1E58BF01F801CBD2
:1001B000FAD505E014F8016B01F8016B6D1EF9D555
:1001C0009142D6D37047000000230024002500266A
:1001D000103A28BF78C1FBD8520728BF30C148BFAA
:1001E0000B607047642900F05381782900F08C81FE
:1001F000002070471FB51FBD10B510BD00F04DFCAD
:100200001146FFF7F7FF2CF019F800F06BFC03B470
:10021000FFF7F2FF03BC00F035FC0000224B196829
:100220000868B0E8F00F80F30988BFF36F8F4FF0D4
:10023000000080F311884EF00D0E704700000000A2
:1002400006480068006880F3088862B661B6BFF3AC
:100250004F8FBFF36F8F00DF00BF00BF08ED00E0DE
:10026000EFF30980BFF36F8F0F4B1A6820E9F00F8F
:10027000106008B54FF0500080F31188BFF34F8F26
:10028000BFF36F8F32F04EFE4FF0000080F3118805
:10029000BDE8084019680868B0E8F00F80F30988E5
:1002A000BFF36F8F704700BF58020020EFF3058047
:1002B000704700000948804709480047FEE7FEE70D
:1002C000FEE7FEE7FEE7FEE7FEE7FEE7FEE7FEE706
:1002D00004480549054A064B7047000023390008C9
:1002E00031010008E0C80020E0CF0020E0CA002073
:1002F000E0CA002053EA020C00F069802DE9F04BBF
:100300004FF00006002B1FBFB3FA83F503FA05F484
:1003100024FA05F65E4012BF1643B2FA82F502FADD
:1003200005F4C5F120051EBF22FA05FC44EA0C04C1
:10033000203556EA044C4FEA144418BF641C4FF0B1
:1003400000084FF00009904271EB030C39D30029EB
:1003500019BFB1FA81F701FA07F6B0FA80F700FA8F
:1003600007F6C7F120071EBF20FA07FC46EA0C0675
:100370002037B6FBF4FCA7EB0507103F07F01F0B77
:10038000CBF120060CFA0BFB2CFA06F644BFB34661
:100390000026202FA4BF5E464FF0000B5BEA060C40
:1003A00008BF4FF0010B19EB0B09ABFB027C48EBCC
:1003B0000608C01B06FB02CC0BFB03CC71EB0C0147
:1003C000C1E70B46024641464846BDE8F08B13B5EF
:1003D0004FF000004FF00001AFF30080BDE81C407B
:1003E000704700000FB41CB5074B06AA7B44694652
:1003F0000090059800F025FB0020694600F034FBD2
:100400001CBC5DF814FB0000790600000FB41CB59D
:100410000C0007AA009001D02044401E074B7B44EB
:1004200069460190069800F00CFB002C03D0694649
:10043000002000F019FB1CBC5DF814FB5106000005
:1004400070B5044685690068C10601D5302600E014
:100450002026C00707D070BDD4E90121304690475F
:10046000206A401C20626D1EF6D570BD70B5044632
:1004700085690078C00707D170BDD4E9012120202B
:100480009047206A401C20626D1EF6D570BD0000AA
:100490002DE9F0410646002410687529314616A55D
:1004A00010D0AFF30080002802DA404213A507E025
:1004B00031688A0701D512A502E0490704D511A5C4
:1004C000012401E0AFF3008000210A2206F1240795
:1004D00009E0B0FBF2FCB0FBF2F302FB1C00303091
:1004E00078541846491C0028F3D123462A46304642
:1004F000BDE8F04100F047BA000000002D00000008
:100500002B0000002000000070B504460D46214677
:100510001068AFF300802188090502D50F4A7A449C
:1005200002E00E4A7A440E32002104F1240305E071
:1005300000F00F060009965D5E54491C0028F7D1B3
:1005400020780023000704D5702D02D009B10223C2
:1005500011322046BDE8704000F015BA76B30300B2
:100560002DE9F05F894604464FF0000ADFF874B1C8
:10057000FB44C0F820A02046E1688847002874D0DA
:10058000252806D0D4E901219047206A401C20622A
:10059000F1E700265F462046E168884720280546A7
:1005A00007DB312D05D2781910F8200C08B106436D
:1005B000F1E7B00701D526F00406C4F81CA0002717
:1005C000C4F818A02A2D09D0284604F004F838B33E
:1005D00004EB8708303DC8F8185019E059F8041B9F
:1005E000204604EB87029161E1688847012F0546A8
:1005F00018D1E069002820DA26F020061DE0D8F89E
:10060000180000EB800005EB40003038C8F81800F7
:100610002046E1688847054603F0DDFF0028EED15B
:10062000012F0AD02E2D08D12046E16888477F1C73
:100630000546022F46F02006C4DBA069002803DA35
:10064000404246F00106A061F00701D026F01006F6
:100650006C2D0BD0682D09D04C2D39D06A2D35D09A
:10066000742D35D07A2D33D016E038E0E1682F466E
:1006700020468847B842054609D16C2F26D04FF452
:100680008060E168064320468847054604E06C2FF9
:100690001AD04FF4807006430DB3A5F1410019281C
:1006A00002D8203546F400664A4629462046266090
:1006B0004E46FFF797FD80B101280BD0F61D26F0BE
:1006C000070000F1080956E74020E4E78020D8E75A
:1006D0000020D6E706F104094DE7284652E7206AD4
:1006E000BDE8F09F4CB3030040EA0103024630B579
:1006F0009B0710D14FF0013400E008C208C91D1B50
:100700009D4315EAC41FF8D013F0FF0102F8011B46
:100710000DD01B0AF8E711F8013B002B02F8013B52
:1007200005D011F8013B002B02F8013BF3D130BD9D
:1007300010B5431C02E010F8011B71B18107FAD11A
:100740004FF0013202C88C1A8C4314EAC211F9D05E
:10075000C01A0A0603D0C01E10BDC01A10BD0A047C
:1007600001D0801E10BD0902FCD0401E10BD032A1E
:1007700040F2308010F0030C00F0158011F8013BBE
:10078000BCF1020F624498BF11F801CB00F8013BA5
:1007900038BF11F8013BA2F1040298BF00F801CB69
:1007A00038BF00F8013B11F0030300F02580083A40
:1007B000C0F0088051F8043B083A51F804CBA0E897
:1007C0000810F5E7121D5CBF51F8043B40F8043BEC
:1007D000AFF30080D20724BF11F8013B11F801CB21
:1007E00048BF11F8012B24BF00F8013B00F801CBF2
:1007F00048BF00F8012B704710B5203AC0F00B80BD
:10080000B1E81850203AA0E81850B1E81850A0E814
:100810001850BFF4F5AF5FEA027C24BFB1E818506E
:10082000A0E8185044BF18C918C0BDE810405FEADE
:10083000827C24BF51F8043B40F8043B08BF70475A
:10084000D20728BF31F8023B48BF11F8012B28BF5F
:1008500020F8023B48BF00F8012B704702F0FF036D
:1008600043EA032242EA024200F002B84FF00002DB
:100870000429C0F0128010F0030C00F01B80CCF1B2
:10088000040CBCF1020F18BF00F8012BA8BF20F820
:10089000022BA1EB0C0100F00DB85FEAC17C24BF74
:1008A00000F8012B00F8012B48BF00F8012B70471E
:1008B0004FF0000200B5134694469646203922BFF9
:1008C000A0E80C50A0E80C50B1F12001BFF4F7AF44
:1008D000090728BFA0E80C5048BF0CC05DF804EB26
:1008E000890028BF40F8042B08BF704748BF20F894
:1008F000022B11F0804F18BF00F8012B7047000049
:100900004FF0013C50F8042B51F8043B9A4221D19E
:10091000A2EB0C03934313EACC1317D150F8042B2A
:1009200051F8043B9A4215D1A2EB0C03934313EA0E
:10093000CC130BD150F8042B51F8043B9A4209D147
:10094000A2EB0C03934313EACC13DBD04FF000006F
:10095000704700BFD01A01BAB1FA81F101F0180155
:1009600022FA01F0CB40C1F12001DBB2C0B2C01AC3
:100970002CFA01F3D11A914311EAC311E6D1704761
:100980007047704770472DE9F0470D4699469246EB
:10099000044600F124080168880604D5E06921F0C6
:1009A0001001216000E00120A84201DD471B00E0AA
:1009B0000027A1697A1902EB0900081AA0612078C2
:1009C000C00602D42046FFF73BFD002608E0D4E92C
:1009D00001211AF806009047206A401C761C20620C
:1009E0004E45F4DB2078C0060AD52046FFF728FDE7
:1009F00006E0D4E9012130209047206A401C2062A3
:100A0000381EA7F10107F4DC07E0D4E9012118F84A
:100A100005009047206A401C2062281EA5F10105B0
:100A2000F3DC2046FFF722FD2078000602D50220E5
:100A3000BDE8F0870120FBE701694A1C02610878E4
:100A4000704700B58FB0CDE901310021059105490E
:100A50007944CDE9031011466846FFF781FD0FB0D8
:100A600000BD0000E5FFFFFF0A6802F8010B0A6005
:100A70007047D1E900239A4202D2531C0B601070D8
:100A80007047000001491820ABBEFEE726000200B7
:100A9000004870477CC8002070477546FFF7F8FF94
:100AA000AE4605006946534620F00700854618B05B
:100AB00020B5FFF70DFCBDE820404FF000064FF0D9
:100AC00000074FF000084FF0000B21F00701AC4683
:100AD000ACE8C009ACE8C009ACE8C009ACE8C009A2
:100AE0008D46704710B50446AFF300802046BDE840
:100AF0001040FFF78CBB10B502F054F810BD70B574
:100B000006460C46154608E03046721C96B200F0C8
:100B100007F804F8010B681E85B2002DF4D170BDF2
:100B200070B50446002602F0EBF82546E11704EB09
:100B300011610912A02202EB4101C8B202F0AEF825
:100B400002F016F9E11704EB11610912A4EB01217F
:100B5000C8B202F0A3F802F00BF902F0D1F8A1201C
:100B600002F09CF802F004F9002002F06BF806464F
:100B700002F0E2F8304670BD70B505460C461646E8
:100B800006E02178284600F009F8681C85B2641C4C
:100B9000301EA6F101018EB2F3D170BD70B50446CE
:100BA0000E4602F0ADF82546E11704EB116109127B
:100BB000A02202EB4101C8B202F070F802F0D8F8AE
:100BC000E11704EB11610912A4EB0121C8B202F094
:100BD00065F802F0CDF8304602F060F802F0C8F88F
:100BE00002F0AAF80A2008F066FA70BD2BF056FE53
:100BF00000BF03F029FA00BF2AF04AFD142032F0AA
:100C0000B1F8F6E700BFFEE77047000010B501201D
:100C10000549086000F00CF804490880084600887F
:100C200003F09CFA10BD0000B401244240000020F3
:100C300010B5002400200C490860902002F088FDC7
:100C4000002002F085FD002002F082FD002002F06D
:100C50007FFDFF2002F07CFD44EA0024FF2002F02B
:100C600077FD0443204610BDB401244210B504A012
:100C700003F08EFA4FF47A7032F074F810BD000071
:100C800041542B4349505354415455530D0A0000CD
:100C900010B504A003F07CFA4FF47A7032F062F8D9
:100CA00010BD000041542B5253540D0A00000000A7
:100CB000FFF7EEFFFFF7DAFF16A003F069FAC8208E
:100CC00032F050F816A003F063FA4FF47A7032F065
:100CD00049F817A003F05CFA4FF47A7032F042F84A
:100CE00017A003F055FA4FF4FA6032F03BF822A057
:100CF00003F04EFA40F6B83032F034F826A003F094
:100D000047FA4FF47A6032F02DF800BFC82032F075
:100D100029F8FBE741542B43574A41503F0D0A0045
:100D200041542B4349505354413F0D0A00000000E9
:100D300041542B4349505354414D41433F0D0A0008
:100D400041542B4D515454555345524346473D3021
:100D50002C312C224E554C4C222C22757365726E10
:100D6000616D65222C22706173737764222C302CA4
:100D7000302C22220D0A000041542B4D5154544373
:100D80004C49454E5449443D302C22636C69656E94
:100D9000744964220D0A000041542B4D51545443B0
:100DA0004F4E4E3D302C226D717474486F737455E4
:100DB000726C222C706F7274732C310D0A0000005B
:100DC00072B600BFFEE7000070B50446B3F5804F71
:100DD00013D1D1E9000540EA05108D6840EA0520ED
:100DE0008D6928438D8940EA054054F82250064E0B
:100DF0003540284344F8220003E06FF0704044F887
:100E00002200002070BD00000000F0CF70B5024647
:100E1000086852F8200020F001000E6842F8260011
:100E20008868082801D1402300E00023486818435F
:100E30008E683043CE6830430E6930434E6930438C
:100E4000CE6930430E6A30434E6A30438E6A304377
:100E5000CE6A30430E6B40EA060488690443486B4F
:100E60000443074D45F4806545F4E025086852F8D1
:100E70002000A84320430E6842F82600002070BDE1
:100E80007FFB080010B50346D1E9000440EA0410D6
:100E90008C6840EA04208C8940EA0444088A401E99
:100EA00044EA0054087D801E44EA00608C692043B7
:100EB000541C53F8244004F040442043541C43F88D
:100EC0002400002010BD0146002291F821000228D4
:100ED00008D00420886300BF002081F8200000BFF4
:100EE000012070470868006820F00E000B68186049
:100EF0000868006820F001000B68186091F8403025
:100F000001209840CB6B5860012081F8210000BF80
:100F1000002081F8200000BF1046E2E770B50446CB
:100F2000002594F82100022803D00420A0630125A5
:100F3000C1E02068006820F00E0021680860206889
:100F4000006820F00100216808605C492068884240
:100F500052D95A4978392068884201D1012047E0A6
:100F6000564964392068884201D1102040E0534935
:100F700050392068884201D1801539E04F493C3909
:100F80002068884201D1801432E04C492839206819
:100F9000884202D14FF480302AE048491439206851
:100FA000884202D14FF4801022E0444920688842F0
:100FB00001D140041CE042492068884201D101204F
:100FC00016E03F4914312068884201D110200FE01B
:100FD0003B4928312068884201D1801508E0384912
:100FE0003C312068884201D1801401E04FF4803008
:100FF0003349091F086051E0304978392068884238
:1010000001D1012047E02D4964392068884201D18F
:10101000102040E0294950392068884201D18015CC
:1010200039E026493C392068884201D1801432E0F9
:10103000224928392068884202D14FF480302AE0C2
:101040001E4914392068884202D14FF4801022E0F2
:101050001A492068884201D140041CE018492068E0
:10106000884201D1012016E01549143120688842D8
:1010700001D110200FE0124928312068884201D1A7
:10108000801508E00E493C312068884201D1801467
:1010900001E04FF48030094980394860012084F82C
:1010A000210000BF002084F8200000BF606B10B159
:1010B0002046616B8847284670BD000080000240D2
:1010C0000804024000B585B0002001900290039012
:1010D00004901C48006808B105B000BD0120194902
:1010E000086000BF1848406940F4807016494861A4
:1010F0000846406900F48070009000BF00BF41F2D4
:1011000001000190022002900320049001A90F48E1
:1011100000F022F84FF68070019002200290032028
:10112000049001A90A4800F017F84CF233700190BE
:10113000022002900320049001A9064800F00CF858
:1011400000BFC9E714000020001002400020014049
:1011500000180140001401402DE9F8470246002321
:101160009C467BE14FF0010808FA03F4D1F80080B7
:1011700008EA0400A0427DD1DFF8F4A2D1F804808F
:10118000A8EB0A09D0453AD014DCB8F1030F50D0CF
:1011900009DCB8F1000F31D0B8F1010F1CD0B8F163
:1011A000020F49D120E0B8F1110F18D0B8F1120F99
:1011B00042D11EE0B9F5881F25D006DCB9F5803F85
:1011C00020D0B9F5801F37D11AE0B9F5001F18D02B
:1011D000B9F5041F30D117E0D1F80CC02DE0D1F8DB
:1011E0000C8008F1040C28E0D1F80C8008F1080C00
:1011F00023E0D1F80C8008F10C0C1EE000BF00BF0A
:1012000000BF00BF00BF00BFD1F80880B8F1000FD9
:1012100002D14FF0040C0BE0D1F80880B8F1010FB7
:1012200003D14FF0080C146102E04FF0080C546138
:1012300003E04FF0000C00E000BF00BFFF2801D822
:10124000904601E002F104084646FF2802D84FEA22
:10125000830803E0A3F108084FEA88084746D6F858
:1012600000804FF00F0909FA07F928EA09080CFA7B
:1012700007F900E07AE048EA0908C6F80080D1F8EA
:10128000048008F08058B8F1805F6FD100BFDFF8AC
:10129000E481D8F8188048F00108DFF8D891C9F83F
:1012A0001880C846D8F8188008F00108CDF80080EA
:1012B00000BF00BF4FEAB9384FEA930958F82950E8
:1012C0004FEA83784FEA18794FF00F0808FA09F8C7
:1012D00025EA0805DFF8A081424502D14FF0000859
:1012E00024E0DFF89881424502D14FF001081DE06B
:1012F000DFF88C81424502D14FF0020816E0DFF89A
:101300008481424502D14FF003080FE0DFF8788175
:10131000424502D14FF0040808E0DFF870814245F1
:1013200002D14FF0050801E04FF006084FEA83793B
:101330004FEA197908FA09F848EA0505DFF85081FB
:101340004FEA930948F82950D1F8048008F480182E
:10135000B8F5801F0BD1DFF83C81D8F8008048EA4F
:101360000008DFF83091C9F800800AE075E0DFF886
:101370002481D8F8008028EA0008DFF81891C9F81D
:101380000080D1F8048008F40018B8F5001F0ED1D1
:10139000DFF8008108F10408D8F8008048EA000866
:1013A000DFF8F09009F10409C9F800800DE0DFF8DA
:1013B000E48008F10408D8F8008028EA0008DFF883
:1013C000D49009F10409C9F80080D1F8048008F428
:1013D0000038B8F5003F0ED1DFF8B880A8F1040856
:1013E000D8F8008048EA0008DFF8A890A9F10409BD
:1013F000C9F800800DE0DFF89C80A8F10408D8F857
:10140000008028EA0008DFF88C90A9F10409C9F8E7
:101410000080D1F8048008F48038B8F5803F0ED100
:10142000DFF87080A8F10808D8F8008048EA0008C2
:10143000DFF86090A9F10809C9F800800DE0DFF835
:101440005480A8F10808D8F8008028EA0008DFF8DE
:101450004490A9F10809C9F800805B1CD1F800800C
:1014600028FA03F8B8F1000F7FF47CAEBDE8F887E6
:10147000000011100010024000080140000C014063
:10148000001001400014014000180140001C014000
:10149000080001400804014010B5C26821EA0203B7
:1014A00002EA010443EA0443036110BD0AB1016189
:1014B00001E00B04036170470148006870470000B9
:1014C0001C000020034800680349097808440149CA
:1014D000086070471C0000202400002010B5084858
:1014E000006840F0100006490860032000F0E2F8B0
:1014F0000F2000F007F800F05FF8002010BD00009A
:10150000002002402DE9F04188B004460027B8468B
:10151000002600BF2348C06940F010002149C8617F
:101520000846C06900F01000019000BF00BF02A98A
:1015300003A800F099F9069F1FB900F0BDF9054610
:1015400002E000F0B9F945001748B5FBF0F0A0F152
:10155000010816481649086040F2E7311448C16096
:10156000C0F80480002101618160816100F0D5FE36
:10157000064696B90E4800F047FF06466EB936207B
:1015800000F04AF8102C07D200222146362000F045
:1015900053F80848046000E00126304608B0BDE872
:1015A000F08100000010024040420F000010004097
:1015B000780400202000002008B500BF144880698E
:1015C00040F00100124988610846806900F001007E
:1015D000009000BF00BF00BF0846C06940F08050C7
:1015E000C8610846C06900F08050009000BF00BF8D
:1015F00000220F21901E00F01FF800BF0549486827
:1016000020F0E06040F00070486000BF08BD0000BE
:10161000001002400000014001460846002809DB96
:1016200000F01F0301229A4043099B0003F1E023CD
:10163000C3F8002100BF70472DE9F05F80460D46DA
:101640001646002702F084FF074639462A463346ED
:1016500001F00700C0F1070ABAF1040F02D94FF0F8
:10166000040A01E0C0F1070AD14600F1040ABAF108
:10167000070F02D24FF0000A01E0A0F1030AD4469E
:101680004FF0010A0AFA09FAAAF1010A0AEA020A63
:101690000AFA0CFA4FF0010B0BFA0CFBABF1010B41
:1016A0000BEA030B4AEA0B042146404602F058FFBE
:1016B000BDE8F09F00BF00F00702064B19684FF627
:1016C000FF031940044B0B4343EA0221014B19600D
:1016D00000BF70470CED00E00000FA0570B504464D
:1016E0000D460CB9012070BD5A48006800F0070093
:1016F000A8420ED25748006820F0070028435549F9
:1017000008600846006800F00700A84201D00120E8
:10171000E9E7207800F0020002281DD1207800F0CF
:101720000400042805D14C48406840F4E0604A4970
:101730004860207800F00800082805D14648406835
:1017400040F46050444948604348406820F0F0004D
:10175000A168084340494860207800F0010078B350
:101760006068012806D13C48006800F4003090B958
:101770000120B8E76068022806D13748006800F009
:10178000007040B90120AEE73348006800F0020065
:1017900008B90120A7E73048406820F003006168DD
:1017A00008432D494860FFF787FE064609E0FFF72A
:1017B00083FE801B41F28831884202D9032092E7E0
:1017C00007E02548406800F00C006168B0EB810F2D
:1017D000EDD12048006800F00700A8420ED91D484E
:1017E000006820F0070028431A490860084600688E
:1017F00000F00700A84201D0012074E7207800F033
:101800000400042807D11448406820F4E060E1682F
:10181000084311494860207800F00800082808D1E2
:101820000D48406820F46050216940EAC1000A492F
:10183000486000F061F808494968C1F30311074A9C
:10184000515CC8400649086006480068FFF75AFE28
:10185000002048E700200240001002407E450308B7
:1018600028000020200000200F2202600D4A52684C
:1018700002F0030242600B4A526802F0F0028260FA
:10188000084A526802F4E062C260064A526802F4F2
:101890006052D2080261044A126802F007020A602C
:1018A000704700000010024000200240014800681C
:1018B000704700002800002000B5FFF7F7FF04493B
:1018C0004968C1F30221034A515CC84000BD0000D1
:1018D000001002408E45030800B5FFF7E7FF0449FA
:1018E0004968C1F3C221034A515CC84000BD0000F1
:1018F000001002408E45030870B50021002200242C
:1019000000230020134D696801F00C05F5B1042D8A
:1019100002D0082D19D101E00F4819E00F4DC1F395
:101920008346AB5D01F4803555B10A4D6D68C5F352
:1019300040450B4E725D084D5D43B5FBF2F402E08D
:10194000084D03FB05F4204602E000BF024800BF3B
:1019500000BF70BD0010024000127A006C45030801
:101960007C45030800093D00F8B504460CB9012088
:10197000F8BD207800F00100002878D0F8484068D1
:1019800000F00C0004280CD0F548406800F00C0072
:10199000082811D1F248406800F48030B0F5803F4B
:1019A0000AD1EF48006800F4003000285FD060687A
:1019B00000285CD10120DBE700BF6068B0F5803F04
:1019C00006D1E748006840F48030E549086028E027
:1019D000606858B9E248006820F48030E049086047
:1019E0000846006820F4802008601AE06068B0F5BE
:1019F000A02F0BD1DA48006840F48020D849086055
:101A00000846006840F4803008600AE0D448006866
:101A100020F48030D24908600846006820F4802015
:101A2000086000BF606888B1FFF746FD054606E024
:101A3000FFF742FD401B642801D9032098E7C848FE
:101A4000006800F400300028F2D010E0FFF734FD09
:101A5000054606E0FFF730FD401B642801D903204E
:101A600086E7BF48006800F400300028F2D12078F3
:101A700000F00200022857D1B948406800F00C007D
:101A800050B1B748406800F00C00082818D1B4489D
:101A9000406800F4803098B9B148006800F0020056
:101AA00020B12069012801D0012061E7AC4800681D
:101AB00020F0F800616940EAC100A949086033E0FC
:101AC0002069E8B10120A7490860FFF7F5FC054649
:101AD00006E0FFF7F1FC401B022801D9032047E78D
:101AE0009F48006800F002000028F2D09C4800687F
:101AF00020F0F800616940EAC1009949086013E0EC
:101B0000002098490860FFF7D7FC054606E0FFF77C
:101B1000D3FC401B022801D9032029E79048006824
:101B200000F002000028F2D1207800F00800082818
:101B30002DD1A069B8B101208B490860FFF7BCFC2A
:101B4000054606E0FFF7B8FC401B022801D9032038
:101B50000EE78348406A00F002000028F2D001201E
:101B600001F0A4FD13E000207F490860FFF7A4FC0A
:101B7000054606E0FFF7A0FC401B022801D9032020
:101B8000F6E67748406A00F002000028F2D120789B
:101B900000F00400042873D100277148C06900F0E8
:101BA000805070B900BF6E48C06940F080506C49E9
:101BB000C8610846C06900F08050009000BF00BFB7
:101BC00001276A48006800F48070B0B9674800686F
:101BD00040F4807065490860FFF76EFC054606E03A
:101BE000FFF76AFC401B642801D90320C0E65F4868
:101BF000006800F480700028F2D000BFE06801287F
:101C000006D15748006A40F001005549086227E0B4
:101C1000E06858B95248006A20F001005049086253
:101C20000846006A20F00400086219E0E068052810
:101C30000BD14B48006A40F004004949086208464D
:101C4000006A40F0010008620AE04548006A20F09E
:101C50000100434908620846006A20F00400086257
:101C600000BFE068A0B1FFF727FC054609E0FFF7D9
:101C700023FC401B41F28831884202D9032077E6D9
:101C800022E03748006A00F002000028EFD012E09E
:101C9000FFF712FC054608E0FFF70EFC401B41F27F
:101CA0008831884201D9032062E62D48006A00F09D
:101CB00002000028F0D1012F05D12948C06920F089
:101CC00080502749C86100BFE069C8B32448406814
:101CD00000F00C00082860D0E069022848D10020FC
:101CE00020490866FFF7E8FB054606E0FFF7E4FB3E
:101CF000401B022801D903203AE61948006800F089
:101D000000700028F2D1206AB0F5803F07D1144856
:101D1000406820F40030A168084311494860D4E9C4
:101D2000080108430E49496821F4741108430C491D
:101D3000486001200B490866FFF7BEFB054607E037
:101D40003DE0FFF7B9FB401B022801D903200FE655
:101D50000348006800F000700028F2D02FE0000077
:101D600000100240000042428004424200700040E5
:101D7000002014490866FFF79FFB054606E0FFF7C1
:101D80009BFB401B022801D90320F1E50E480068A7
:101D900000F000700028F2D111E0E069012800D1C4
:101DA000E6E50948466806F48031206A814204D19C
:101DB00006F47011606A814201D00120D8E500204C
:101DC000D6E50000000042420010024010B5044673
:101DD0000CB9012010BD606A38B96068B0F5827F27
:101DE00000D105E00021E16102E000212161616193
:101DF000A06AB0F5005F00D100BF94F8510028B987
:101E0000002084F85000204600F04AF8022084F8B0
:101E100051002068006820F0400021680860A08818
:101E200000F48270218901F404410843A18901F47E
:101E300000610843217C01F002010843217D01F08B
:101E400001010843218B01F400710843217F01F057
:101E5000380108432021095D01F080010843218DEC
:101E600001F400510843216808600421A06901EAD7
:101E7000104021684860A06AB0F5005F03D1A08DD2
:101E800080B2216808612068C06920F40060216880
:101E9000C86100206065012084F85100002099E7A6
:101EA00010B586B00446002002900390049005907F
:101EB0003449206888422ED100BF3348806940F4FD
:101EC0008050314988610846806900F48050019053
:101ED00000BF00BF00BF0846806940F00400886171
:101EE0000846806900F00400019000BF00BFA020F8
:101EF0000290022003900320059002A92348FFF7D7
:101F00002BF94020029000200390049002A91F4862
:101F1000FFF722F933E01E49206888422FD100BF25
:101F20001948C06940F480401749C8610846C06933
:101F300000F48040019000BF00BF00BF08468069E8
:101F400040F0080088610846806900F008000190B0
:101F500000BF00BF4FF420400290022003900320F6
:101F6000059002A90B48FFF7F7F84FF48040029064
:101F700000200390049002A90648FFF7EDF806B090
:101F800010BD000000300140001002400008014078
:101F900000380040000C01402DE9F04F85B00446A8
:101FA000884691461D460E9E002003900120029017
:101FB0000020019000BF94F85000012803D10220B6
:101FC00005B0BDE8F08F012084F8500000BFFFF796
:101FD00073FA074694F851B060680490AA46BBF1C2
:101FE000010F0BD00498B0F5827F04D1A06810B91E
:101FF000BBF1040F02D0022001904DE1B8F1000FB7
:1020000003D0B9F1000F00D015B90120019043E1D0
:1020100094F85100042802D0052084F851000020D3
:102020006065C4F83890E587A587C4F83080E586F8
:10203000A58620646064A06AB0F5005F0DD100BF82
:102040002068006820F4005021680860206800685B
:1020500040F400502168086000BF2068006800F06C
:102060004000402805D02068006840F0400021680A
:102070000860E068B0F5006F59D1606810B1BAF13E
:10208000010F09D1206B00882168C860206B801C7B
:102090002063E08E401EE08642E02068806800F009
:1020A000020002281CD1E08ED0B10298012817D17D
:1020B000206B00882168C860206B801C2063E08E44
:1020C000401EE08600200290E08E48B9A06AB0F57C
:1020D000005F05D12068006840F4805021680860E6
:1020E0002068806800F0010068B1E08F58B1206876
:1020F000C068A16B0880A06B801CA063E08F401EAD
:10210000E08701200290FFF7D7F9C01BB04207D348
:10211000701C28B103200190012084F85100BBE01D
:10212000E08E0028B9D1E08F0028B6D159E0606870
:1021300010B1BAF1010F09D1206B00782168087342
:10214000206B401C2063E08E401EE08643E0206848
:10215000806800F0020002281CD1E08ED0B1029805
:10216000012817D1206B007821680873206B401C70
:102170002063E08E401EE08600200290E08E48B989
:10218000A06AB0F5005F05D12068006840F4805077
:10219000216808602068806800F0010068B1E08F65
:1021A00058B12068C068A16B0870A06B401CA06388
:1021B000E08F401EE08701200290FFF77DF9C01BF1
:1021C000B04201D3701C00B92EB903200190012048
:1021D00084F8510060E0E08E0028B8D1E08F00283C
:1021E000B5D1A06AB0F5005F12D133460122114685
:1021F0002046009701F0D6FA30B1606D40F0020041
:1022000060650320019047E02068C068039000BF2C
:1022100020688068C0F30010E8B1204601F0BEFAE3
:10222000012814D1606D40F00200606500BF206895
:10223000006820F40050216808602068006840F4BD
:1022400000502168086000BF0120019003E04FF6B4
:10225000EF70216888603A463146204601F08AFADC
:1022600020B1012001902020606515E0A06850B9E0
:1022700000BF002000902068C0680090206880683F
:10228000009000BF00BF606D10B10120019002E01E
:10229000012084F8510000BF00BF002084F85000E6
:1022A00000BF01988CE670B504460E4615461CB179
:1022B000A069B0F5807F01D1012070BD94F8410084
:1022C00028B9002084F84000204600F01FF804F1EF
:1022D00008012068FEF79AFD3146A2682068FEF7E3
:1022E000D1FD2946236BD4E90102FEF76DFDA168FB
:1022F000206850F8210040F00100A268216841F8F0
:102300002200012084F841000020D6E710B50446E1
:10231000FEF7D8FE10BD7047704710B504460CB9E3
:10232000012010BD94F83D0028B9002084F83C003D
:10233000204600F025F8022084F83D00211D206889
:1023400001F062FC012084F8460000BF84F83E00E2
:1023500001213F200155402001554120015500BF7A
:1023600000BF012084F8420043200155442001555C
:102370004520015500BF012084F83D000020D0E732
:1023800070470000014691F83D00012801D001206E
:102390007047022081F83D00164B0868984213D020
:1023A000154B086898420FD00868B0F1804F0BD0E9
:1023B000124B0868984207D0114B0868984203D026
:1023C000104B086898420CD10868806800F007023A
:1023D000062A0CD00868006840F001000B681860FD
:1023E00005E00868006840F001000B6818600020F4
:1023F000CEE70000002C0140003401400004004002
:1024000000080040000C0040014691F83D00012802
:1024100001D001207047022081F83D000868C068A3
:1024200040F001000B68D860164B0868984213D042
:10243000154B086898420FD00868B0F1804F0BD058
:10244000124B0868984207D0114B0868984203D095
:10245000104B086898420CD10868806800F00702A9
:10246000062A0CD00868006840F001000B6818606C
:1024700005E00868006840F001000B681860002063
:10248000C8E70000002C0140003401400004004077
:1024900000080040000C0040704710B5044620685A
:1024A0000069C0F34000D8B12068C068C0F34000A4
:1024B000B0B16FF002002168086101202077206828
:1024C000806900F0030018B12046FFF7E5FF05E042
:1024D000204600F0ADF8204600F0ABF80020207751
:1024E00020680069C0F38000D8B12068C068C0F3DC
:1024F0008000B0B16FF004002168086102202077ED
:102500002068806900F4407018B12046FFF7C4FFCE
:1025100005E0204600F08CF8204600F08AF8002004
:10252000207720680069C0F3C000D8B12068C06877
:10253000C0F3C000B0B16FF008002168086104204A
:1025400020772068C06900F0030018B12046FFF72B
:10255000A3FF05E0204600F06BF8204600F069F884
:102560000020207720680069C0F30010D8B12068EF
:10257000C068C0F30010B0B16FF0100021680861AE
:10258000082020772068C06900F4407018B1204608
:10259000FFF782FF05E0204600F04AF8204600F0F1
:1025A00048F8002020772068006900F0010058B149
:1025B0002068C06800F0010030B16FF001002168B0
:1025C0000861204600F036F820680069C0F3C010AA
:1025D00058B12068C068C0F3C01030B16FF08000FF
:1025E000216808612046FFF796FE20680069C0F365
:1025F000801058B12068C068C0F3801030B16FF00F
:10260000400021680861204600F020F82068006939
:10261000C0F3401058B12068C068C0F3401030B11A
:102620006FF02000216808612046FFF775FE10BD9D
:102630007047704710B5044603492068884201D1AD
:10264000FEF740FF10BD00000010004070477047CB
:10265000704700002DE9F84F04462068056820689F
:10266000C668206847694FF00009CA4605F00F099F
:10267000B9F1000F0AD105F0200038B106F02000B2
:1026800020B1204601F0E4FDBDE8F88FB9F1000F5C
:102690007BD007F0010018B906F49070002874D0C0
:1026A00005F0010030B106F4807018B1606C40F0A4
:1026B0000100606405F0040030B107F0010018B1BA
:1026C000606C40F00200606405F0020030B107F079
:1026D000010018B1606C40F00400606405F008006F
:1026E00048B106F0200010B907F0010018B1606C85
:1026F00040F008006064606C002845D005F02000C0
:1027000028B106F0200010B1204601F0A1FD20689C
:102710004069C0F3801A606C00F0080010B9BAF18B
:10272000000F2CD0204601F04DFD2068406900F0DC
:10273000400000B300BF00BF2168143151E8001F02
:1027400021F040002168143141E80002002AF3D151
:1027500000BFE06B50B17748E16B4863E06BFEF778
:10276000DDFB88B1E06B416B88470DE02046FFF749
:102770006FFF09E009E02046FFF76AFF04E020460A
:10278000FFF766FF002060647EE7206B012877D1A9
:1027900005F01000002873D006F010000028FAD0D1
:1027A00000BF00200090206800680090206840680A
:1027B000009000BF00BF2068406900F04000002882
:1027C0005FD0E06B006840681FFA80F8B8F1000F36
:1027D00055D0A08D404552DDA4F82E80E06B806975
:1027E000202843D000BF00BF21680C3151E8001FF2
:1027F00021F4807021680C3141E80002002AF3D1F5
:1028000000BF00BF00BF2168143151E8001F21F054
:1028100001002168143141E80002002AF3D100BF11
:1028200000BF00BF2168143151E8001F21F04000B3
:102830002168143141E80002002AF3D100BF2020B2
:1028400084F842000020206300BF00BF21680C31E3
:1028500051E8001F21F0100021680C3141E800020E
:10286000002AF3D100BFE06BFEF72DFB022060636E
:10287000A08DE28D801A81B22046FFF7E8FE03E7C3
:1028800042E0A08DE18D401A1FFA80F8E08DD0B3B0
:10289000B8F1000F37D000BF00BF21680C3151E8FC
:1028A000001F21F4907021680C3141E80002002AD9
:1028B000F3D100BF00BF00BF2168143151E8001FF1
:1028C00021F001002168143141E80002002AF3D10F
:1028D00000BF202084F842000020206300BF00BF1A
:1028E00021680C3151E8001F21F0100021680C31E3
:1028F00041E80002002AF3D100BF02206063414694
:102900002046FFF7A4FEBFE605F0800030B106F0D8
:10291000800018B1204601F097FDB5E605F04000B3
:1029200030B106F0400018B1204601F081FCABE662
:1029300000BFA9E6B141000810B504460CB901205A
:1029400010BDA06900B100E000BF94F8410028B9B3
:10295000002084F84000204600F02AF8242084F863
:1029600041002068C06820F400502168C8602046FB
:1029700001F0ECFC2068006920F4904021680861B7
:102980002068406920F02A00216848612068C068FA
:1029900040F400502168C86000206064202084F862
:1029A000410084F842000020606300BFC8E70000D7
:1029B00010B586B004460020029003900490059064
:1029C00037492068884237D100BF3648806940F4D3
:1029D0008040344988610846806900F48040019055
:1029E00000BF00BF00BF0846806940F00400886156
:1029F0000846806900F00400019000BF00BF481540
:102A00000290022003900320059002A92648FEF7B9
:102A1000A3FB4FF48060029000200390049002A971
:102A20002148FEF799FB002205212520FEF704FE30
:102A30002520FEF7F1FD31E01C49206888422DD1A8
:102A400000BF1848C06940F400301649C861084604
:102A5000C06900F40030019000BF00BF00BF08460D
:102A6000806940F0040088610846806900F0040035
:102A7000019000BF00BF04200290022003900320B9
:102A8000059002A90848FEF767FB08200290002085
:102A90000390049002A90448FEF75EFB06B010BD47
:102AA000003801400010024000080140004400408E
:102AB00070472DE9F84F04460E46174699464FF0E9
:102AC000000A94F8410020284AD106B117B9012024
:102AD000BDE8F88F00206064212084F84100FEF7F3
:102AE000EBFC8246A784E784A068B0F5805F04D140
:102AF000206910B90025B04602E035464FF00008C5
:102B00001BE05346002280212046CDF8009001F0C2
:102B1000CBFC08B10320DBE745B9B8F80000C0F3EF
:102B200008002168486008F1020803E0287821685D
:102B300048606D1CE08C401EE084E08C0028E0D1F1
:102B40005346002240212046CDF8009001F0ACFC15
:102B500008B10320BCE7202084F841000020B7E73B
:102B60000220B5E7704700BFFEE7000010B5002067
:102B70000A49086000F0BEFD00200949C1F8AC0117
:102B8000022006F0A1FA012004490860052006F0A1
:102B90009BFA00200249C1F8A80110BDA88121427A
:102BA0000080214200B585B000BF1448806940F024
:102BB0000800124988610846806900F0080000900A
:102BC00000BF00BF01224FF440610D48FEF76EFCCC
:102BD0004FF44060019001200290002003900220F9
:102BE000049001A90648FEF7B7FA012005490860DC
:102BF0000549C1F8AC0105B000BD0000001002405D
:102C0000000C0140A88121420080214210B5002023
:102C10000A49086000F06EFD01200949C1F8AC01C5
:102C2000022006F051FA012004490860052006F050
:102C30004BFA00200249C1F8A80110BDA881214229
:102C40000080214270B50546002400F043FD0026B7
:102C500016E000200F490860022006F035FA012036
:102C60000D49C1F8A8016006040E0A487C380068C6
:102C700008B1601CC4B2012006F026FA701CC6B26E
:102C8000082EE6DB15B9FFF7C1FF01E0FFF76EFF85
:102C9000204670BDA88121420080214270B50446C3
:102CA00000F028FD002014490860002520E004F011
:102CB0008000002804DD01200F49091D086003E0A1
:102CC00000200D49091D08606006040E022006F070
:102CD000FBF9012008490860022006F0F5F9002000
:102CE0000649C1F8A801022006F0EEF9681CC5B239
:102CF000082DDCDB70BD0000A8812142008021424C
:102D000010B500F0F7FC0120094908600949C1F835
:102D1000A801052006F0D8F9002005490860062022
:102D200006F0D2F900200349C1F8A80110BD000047
:102D3000AC8121420080214210B500F0DBFC002074
:102D4000094908600949C1F8AC0101200649086039
:102D5000062006F0B9F901200449C1F8AC010620AB
:102D600006F0B2F910BD0000A88121420080214286
:102D700010B5002400F0AEFC01200E49086006F0FA
:102D8000A3F901200C49C1F8A80106F09DF907E05C
:102D9000601CC4B2FA2C03DDFFF7CEFF012010BD8A
:102DA0000448803800680028F2D10249091F0860F1
:102DB00000BFF4E7AC8121420080214270B5064695
:102DC0000F484088401E83B20D480088401E82B2E2
:102DD0000021084600F09EF800240CE0002504E0E5
:102DE000304600F0CDF9681C85B205484088A842FD
:102DF000F6DC601C84B202480088A042EEDC70BDA4
:102E00003000002000B50246B2B9012000F0ACF954
:102E10004FF4807000F0AEF9032000F0A5F941F204
:102E2000300000F0A7F94FF4C8700E494880F02038
:102E300008800020887114E0012000F095F900203E
:102E400000F098F9032000F08FF941F2380000F00B
:102E500091F9F020034948804FF4C87008800120A0
:102E6000887100BD3000002070B504460D4616463E
:102E70002B4622462946204600F04CF8304600F00A
:102E80007FF970BDF0B504460D46174605F1010CFB
:102E90001FFA8CF304F1010C1FFA8CF2A5F1010C5E
:102EA0001FFA8CF1A4F1010C1FFA8CF000F032F83B
:102EB000002604E0384600F063F9701CC6B2092E03
:102EC000F8DB211D8AB2211F88B22B46294600F06B
:102ED00021F8002604E0384600F052F9701CC6B212
:102EE000092EF8DB281D83B2281F81B22246204616
:102EF00000F010F8002604E0384600F041F9701C9C
:102F0000C6B2092EF8DBF0BD01480088704700000A
:102F10000008006C30B505460C462E48807950BB41
:102F20004FF4047000F020F9284600F023F940F235
:102F3000112000F019F9104600F01CF940F212209F
:102F400000F012F9204600F015F940F2132000F0CD
:102F50000BF9184600F00EF94FF4007000F004F978
:102F6000284600F007F940F2012000F0FDF8204665
:102F700000F000F929E040F2122000F0F5F82846B0
:102F800000F0F8F840F2132000F0EEF8104600F0E0
:102F9000F1F84FF4047000F0E7F8204600F0EAF88A
:102FA00040F2112000F0E0F8184600F0E3F840F29B
:102FB000012000F0D9F8284600F0DCF84FF400704A
:102FC00000F0D2F8204600F0D5F840F2022000F0E0
:102FD000CBF830BD300000202DE9F84F80460E467A
:102FE00017461C46B3462046E31704EB5373DB1029
:102FF00021464FEAE47C04EB5C7C4FEAEC0CA4EB4A
:10300000CC0CBCF1000F02D04FF0010C01E04FF0EE
:10301000000C6344224604EBD27C4FEA6C0C03FBA9
:103020000CF3DBB20093A7F12000C7B2002556E0F5
:103030000C2C07D107EB47002B4901EB800010F85F
:10304000059013E0102C05D1284800EB071010F86C
:1030500005900BE0182C07D107EBC700244901EBC2
:10306000800010F8059001E0BDE8F88F4FF0000AED
:103070002FE009F0800030B11E48028831464046FA
:10308000FFF7F2FE07E00A9828B91B48028831468C
:103090004046FFF7E9FE4FEA49604FEA1069701CAD
:1030A00086B216484088B04200DCDDE7A6EB0B0094
:1030B000A0420AD15E4608F101001FFA80F80F48CD
:1030C0000088404500DCCFE706E00AF1010000F08F
:1030D000FF0ABAF1080FCCDB00BF681CC5B200982C
:1030E0008542A5DB00BFBFE7964503080A4A0308EF
:1030F000FA4F03082C0000202E0000203000002092
:103100002DE9F84704460D4690469946DDE90967E2
:1031100004F0FF0A08EB04001FFA80F809EB050031
:103120001FFA80F916E0444502DB5446A81985B21F
:103130004D4500DB14E0002000903A7833462946E4
:103140002046FFF749FF304606EBD07104EB6101E2
:103150008CB27F1C38787E2802DC38782028E2DAAE
:1031600000BFBDE8F88700000149088070470000F3
:10317000FE07006C01490880704700000008006CE1
:1031800001490880704700000008006C2DE9FC41EF
:103190003F484049086025F010FC054620F070F8D3
:1031A00025F00BFC054614F051FB04463222502159
:1031B000204624F0D0FA254600231A460921284645
:1031C0001FF0F0FB00BF00230722334920461FF009
:1031D000F3FA25F0F2FB054614F038FB06463222DE
:1031E0005021304624F0B7FA0A2000230E2221464F
:1031F000009030461FF0E8FB0023072227493046A5
:103200001FF0DAFA30461DF0C1F8074600231A46CF
:10321000092138461FF0C6FB00221E4801683846C7
:1032200024F054FC1EA138461EF0B8F825F0C5FB6A
:1032300005461EF0B9F91B490860322211461948AB
:10324000006824F088FA184800F47801090A00F4AC
:103250007C4241EA5211C0F3C40211430091BDF80F
:10326000002011460F48019100681EF0F4FA6FF03B
:10327000090000230B22214600900A4800681FF035
:10328000A3FB084800681EF0BFFABDE8FC810000FF
:10329000E89E0308E002002059170108893600085B
:1032A00052450000EC020020359A350010B5114857
:1032B00029F068FE10490860104A0021104829F0E2
:1032C000C9FE10490860104A0021104829F0C2FECA
:1032D0000F4908600F4A00210F4829F0BBFE0F4933
:1032E00008600F4A00210F4829F0B4FE0E4908601B
:1032F00010BD00005C45030810000020CC4403080A
:103300007D38000800000020F0440308ED0B0008A1
:1033100004000020144503080941000808000020AB
:1033200038450308B10C00080C00002000B58FB030
:103330001C2108A8FDF7BCFA1C2101A8FDF7B8FA6A
:103340004FF02040234908602348486006208860E9
:1033500000212048C160016110214161002181618B
:10336000C161016241624FF4805181620021C162FA
:103370004FF4804101630021416381630120089083
:103380000F20099010200A9000200B9010200C9024
:1033900011200D9000200E900F200190029010201F
:1033A0000390062004901020059011200690002024
:1033B000079001AA08A90748FEF775FF08B1FDF7B5
:1033C000FFFC0648C06940F480600449C8610FB042
:1033D00000BD0000F0020020040100A00000014038
:1033E00000B585B00020019002900390049000BFCA
:1033F0005F48806940F010005D4988610846806937
:1034000000F01000009000BF00BF00BF08468069B8
:1034100040F0800088610846806900F080000090DC
:1034200000BF00BF00BF0846806940F0040088610B
:103430000846806900F00400009000BF00BF00BF94
:103440000846806940F4807088610846806900F40D
:103450008070009000BF00BF00BF0846806940F048
:10346000400088610846806900F04000009000BF7D
:1034700000BF00BF0846806940F008008861084628
:10348000806900F00800009000BF00BF00BF084640
:10349000806940F0200088610846806900F02000C3
:1034A000009000BF00BF012249153248FDF7FEFF22
:1034B000002203213048FDF7F9FF012211032F48B4
:1034C000FDF7F4FF012240212D48FDF7EFFF012217
:1034D0004FF4C0412B48FDF7E9FF4FF40070019015
:1034E00001200290002003900220049001A92148AD
:1034F000FDF732FE0320019001200290002003908E
:103500000220049001A91C48FDF726FE4FF48050CC
:10351000019001200290002003900220049001A954
:103520001648FDF719FE402001900120029000206E
:1035300003900320049001A91148FDF70DFE80209F
:10354000019000200290039001A90D48FDF704FEB0
:103550004FF4C0400190012002900020039002200F
:10356000049001A90748FDF7F7FD05B000BD000074
:1035700000100240001C014000100140000C0140FE
:10358000001401400020014010B50E480E490860AB
:103590004FF48270486000210B488160C1600221B5
:1035A000016101214161490281613821C16100212C
:1035B000016241620721C162FEF708FC08B1FDF714
:1035C000FFFB10BD003001403803002010B50E484D
:1035D0000E4908604FF48270486000210B488160FA
:1035E000C1600221016101214161490281613821EB
:1035F000C1610021016241620721C162FEF7E6FB61
:1036000008B1FDF7DDFB10BD00380040900300203D
:1036100010B50B480B4908604FF4E13048600021B9
:1036200008488160C16001610C2141610021816114
:10363000C161FFF781F908B1FDF7C2FB10BD0000C1
:1036400000380140E803002010B50B480B49086022
:103650004FF4E1304860002108488160C160016199
:103660000C21416100218161C161FFF765F908B159
:10367000FDF7A6FB10BD0000004400403004002010
:1036800000BFFEE700BFFEE770B5044620461AF013
:10369000E2F80546072D01D129F000F901A000F05C
:1036A0004DFD70BD6D656E750D0A000008B50849C9
:1036B0000968C9084FF47A72B1FBF2F141430091F5
:1036C00000BF00BF00994A1E00920029F9D108BD31
:1036D000280000201FB54FF480600090002001906A
:1036E0000120029069460248FDF736FD1FBD00002B
:1036F000000C01401FB54FF40060009001200190C4
:10370000002002900220039069460248FDF724FD44
:103710001FBD0000000C014001B582B000200190E7
:10372000401E012301AA02A900900348FEF734FCC1
:103730009DF804000EBD00003803002010B50446BB
:103740000248C461FEF742FB10BD000038030020B0
:1037500001B582B000200190401E012301AA02A9F8
:1037600000900348FEF718FC9DF804000EBD000011
:1037700090030020F8B504460D4616462B4600225D
:1037800080212046009600F00DF828B1606D40F0D1
:10379000200060650320F8BD0020FCE70146012001
:1037A000704700002DE9F84F04460D4690461E462E
:1037B000DDF82890FDF780FEA0EB0900371AFDF731
:1037C0007BFE82462C480068C0F3CB3078430090E3
:1037D00045E0701C002842D0FDF76EFEA0EB0A0009
:1037E000B84200D2A7BB2068406820F0E000216802
:1037F00048606068B0F5827F0DD1A068B0F5004FD9
:1038000003D0A068B0F5806F05D12068006820F073
:10381000400021680860A06AB0F5005F0DD100BFCC
:103820002068006820F40050216808602068006863
:1038300040F400502168086000BF012084F8510066
:1038400000BF002084F8500000BF0320BDE8F88FBF
:10385000FFE7009800B900270098401E00902068FC
:1038600080682840A84201D1012000E000204045A6
:10387000AFD10020EAE700002800002000BF0120AF
:1038800029F022FBFBE7000010B500BF502080F3B9
:103890001188BFF34F8FBFF36F8F00BF30F0DCF89C
:1038A00018B14FF080500449086000BF002080F339
:1038B000118800BF10BD000004ED00E000B58FB01E
:1038C000282105A8FCF7F4FF14216846FCF7F0FF57
:1038D0000120059000040690002007900120099027
:1038E00002200C90C1030D914FF4E0110E9105A838
:1038F000FEF73AF808B1FDF763FA0F2000900220B6
:103900000190002002904FF480600390002004900A
:1039100002216846FDF7E2FE08B1FDF751FA0FB04B
:1039200000BD704710B5322005F0C5FB0020FFF741
:103930001BFCFFF7E9FAAF4988800020FFF714FC71
:103940000020FFF711FC0A2005F0B5FB0020FFF76F
:103950000BFC0020FFF708FC0020FFF705FC00200F
:10396000FFF702FC0020FFF7FFFB0020FFF7FCFB46
:103970000020FFF7F9FB0020FFF7F6FB0A2005F017
:103980009AFB4FF48060FFF7EFFB4FF4C440FFF762
:10399000F1FB0820FFF7E8FB40F60800FFF7EAFB21
:1039A0004FF44070FFF7E0FB0520FFF7E3FB40F228
:1039B0000130FFF7D9FB44F60640FFF7DBFB40F28E
:1039C0000230FFF7D1FB40F20260FFF7D3FB40F279
:1039D0000330FFF7C9FB40F20C50FFF7CBFB4FF46D
:1039E0004170FFF7C1FB4FF44C50FFF7C3FB40F2AF
:1039F0000530FFF7B9FB40F60540FFF7BBFB40F28F
:103A00000630FFF7B1FB44F20620FFF7B3FB40F2AC
:103A10000730FFF7A9FB40F20C60FFF7ABFB4FF458
:103A20004270FFF7A1FB4FF4A060FFF7A3FB40F249
:103A30000930FFF799FB3320FFF79CFB1020FFF7BD
:103A400093FB1420FFF796FB1120FFF78DFB40F24C
:103A50000110FFF78FFB1220FFF786FB0020FFF716
:103A600089FB1320FFF780FB0120FFF783FB4FF456
:103A70008070FFF779FB4FF44C70FFF77BFB40F24F
:103A80000110FFF771FB40F24720FFF773FB40F294
:103A90000310FFF769FB4FF48050FFF76BFB4FF407
:103AA0002070FFF761FB4FF45E40FFF763FB4FF4BC
:103AB0008170FFF759FB4DF2B010FFF75BFB0A2056
:103AC00005F0F9FA0120FFF74FFB4FF48070FFF784
:103AD00051FB0220FFF748FB4FF48070FFF74AFBD1
:103AE0000320FFF741FB41F23000FFF743FB0920C1
:103AF000FFF73AFB0120FFF73DFB0C20FFF734FBFB
:103B00000020FFF737FB9020FFF72EFB4FF400401B
:103B1000FFF730FB0F20FFF727FB0020FFF72AFB02
:103B20004FF40470FFF720FB0020FFF723FB40F267
:103B30001120FFF719FBEF20FFF71CFB40F21220CA
:103B4000FFF712FB0020FFF715FB40F21320FFF7F1
:103B50000BFB40F28F10FFF70DFB4FF4A060FFF757
:103B600003FB0020FFF706FB40F20150FFF7FCFAD1
:103B70000020FFF7FFFA40F20250FFF7F5FA5F204E
:103B8000FFF7F8FA40F20140FFF7EEFA0120FFF7E5
:103B9000F1FA40F20440FFF7E7FA0020FFF7EAFAF3
:103BA0000A2005F088FA0720FFF7DEFA4FF480704C
:103BB000FFF7E0FA0A2005F07EFA4FF40070FFF7F5
:103BC000D3FA0020FFF7D6FA40F20120FFF7CCFA33
:103BD0000020FFF7CFFA0A2005F06DFA40F202202C
:103BE000FFF7C2FA0020FFF70DF94FF6FF70FFF75D
:103BF000E5F810BD3000002010B50248FEF74DFC7E
:103C000010BD00007804002010B50268204B9842D7
:103C10000ED0204B98420BD0B0F1804F08D01E4BF5
:103C2000984205D01D4B984202D01D4B984203D1BB
:103C300022F070024B681A43154B98420ED0154B78
:103C400098420BD0B0F1804F08D0134B984205D06A
:103C5000124B984202D0124B984203D122F4407288
:103C6000CB681A4322F080034C6943EA04020260E5
:103C70008B68C3620B688362054B984202D0054B88
:103C8000984201D10B6903630123436110BD000019
:103C9000002C0140003401400004004000080040B6
:103CA000000C00402DE9F04387B001AB03AA0A21C4
:103CB000084600F0E1F810B107B0BDE8F0834FF41A
:103CC000FA7005F0F8F9614840880A3881B20DF1C0
:103CD00006030DF10E020A2000F0CEF800B1EBE76A
:103CE0004FF4FA7005F0E7F9584909880A3988B2A3
:103CF00002AB04AA0A2100F0BFF800B1DCE74FF4E0
:103D0000FA7005F0D8F9514A52880A3A91B24F4AEE
:103D100012880A3A90B20DF10A030DF1120200F076
:103D2000ABF800B1C8E74FF4FA7005F0C4F9BDF87C
:103D30000C10BDF80E20881800EBD071C1F34F01B4
:103D4000ADF81810BDF80410BDF80820881800EB75
:103D5000D071C1F34F01ADF81410BDF81210BDF8C9
:103D60001020881800EBD071C1F34F01ADF81A1084
:103D7000BDF80A10BDF80620881800EBD071C1F319
:103D80004F01ADF81610BDF81A10BDF81820881AAA
:103D900030F02EFA06462D490988A1F1140030F0C2
:103DA00027FA0746314630F025F90446BDF81610CB
:103DB000BDF81420881A30F01BFA064623494988BA
:103DC000A1F1140030F014FA0746314630F012F930
:103DD0000546BDF81A0030F023FA8146214630F03E
:103DE00033FA0746194909880A3908B230F000FA4F
:103DF0008046394630F0F4FA064630F0BDF900B29C
:103E000013494880BDF8160030F00AFA8146294669
:103E100030F01AFA07460D4949880A3908B230F0DD
:103E2000E7F98046394630F0DBFA064630F0A4F96F
:103E300000B20749888008468460C5605920087030
:103E40001022C820FCF798FE00BF35E730000020A4
:103E5000C004002010B5FCF74EFE10220549C82012
:103E6000FCF74DFE03480078592801D0FFF71AFFF0
:103E700010BD0000C00400202DE9F04780468946AF
:103E800014461D4615480088FEF798FF4FF4784207
:103E900049464046FEF7F6FF00261DE0294620462B
:103EA00000F082F860B9701CC6B20A2E08DD0B481B
:103EB000028849464046FEF7E5FF0020BDE8F0874E
:103EC0007F1C17F1020F07D9044802884946404673
:103ED000FEF7D8FFFF20F1E7E0E700002E0000200A
:103EE0002DE9F04194B080461820FFF727FC00240C
:103EF00025E000202A4908604046FFF70DFCFF201E
:103F0000FFF70AFC2DF814003DF814004FF6FF717E
:103F100001EA00202DF81400FF20FFF7FDFB3DF81B
:103F2000141008432DF814003DF81400C0102DF8AB
:103F3000140001201B49C1F89801601CC4B2282C50
:103F4000D7DB002416E0601CC5B20FE03DF814007A
:103F50003DF81510884207DA3DF814603DF8150069
:103F60002DF814002DF81560681CC5B2282DEDDB66
:103F7000601CC4B2272CE6DB27250027012404E0BF
:103F80003DF814000744601CC4B2AC42F8DB2620A4
:103F9000B7FBF0F086B2304614B0BDE8F081000007
:103FA00098812242008022422DE9F04704460D46C6
:103FB000D020FFF795FF06469020FFF791FF0746B8
:103FC000D020FFF78DFF80469020FFF789FF8146C4
:103FD000464503DDA6EB0800208002E0A8EB0600C2
:103FE00020804F4503DDA7EB0900288002E0A9EB04
:103FF000070028802088142802DC2888142802DD85
:10400000FF20BDE8F08706EB080000EBD071C1F39C
:104010004F01218007EB090000EBD071C1F34F0184
:1040200029802088B0F57A6F09DC2088642806DBB7
:104030002888B0F57A6F02DC2888642801DAFF202E
:10404000DFE70020DDE700002DE9F0412B49881E65
:10405000FFF7AAFF10B10020BDE8F0812849B1F9AF
:10406000020030F0C5F806462449891E088830F061
:10407000D7F8074622488168384630F0E5F805460B
:1040800031462FF055FF044630F092F81B49891E47
:1040900088801B49B1F9040030F0AAF80646174998
:1040A000891E488830F0BCF807461548C168384674
:1040B00030F0CAF8054631462FF03AFF044630F09A
:1040C00077F80E49891EC880084680880D490988FE
:1040D000884204DD0B4800880849891E888007480B
:1040E000801EC08807494988884204DD0548408809
:1040F0000249891EC8800120AEE700003A00002076
:10410000C00400203000002000BF01210348FDF75B
:10411000C3F9C82028F0D8FEF7E7000000100140DE
:104120003EB50446224604A16846FCF75BF96846A2
:1041300000F004F83EBD00002564000070B50446A0
:104140002046FCF7F5FA85B24FF0FF332A462146A8
:104150000148FEF7AEFC70BDE80300203EB5044602
:10416000234608A209216846FCF750F96846FCF787
:10417000DFFA85B24FF0FF332A4669460348FEF75F
:1041800098FC3EBD25303858000000003004002067
:1041900070B504462046FCF7CBFA85B24FF0FF33EA
:1041A0002A4621460148FEF784FC70BD30040020F9
:1041B00070B505466C6A0020E085E0842046FEF775
:1041C00047FA70BD00BF00BF02680C3252E8002FF2
:1041D00022F4907102680C3242E80013002BF3D1F4
:1041E00000BF00BF00BF0268143252E8002F22F067
:1041F00001010268143242E80013002BF3D100BF22
:10420000016B01290ED100BF00BF02680C3252E8D9
:10421000002F22F0100102680C3242E80013002B3C
:10422000F3D100BF202180F84210002101637047C4
:1042300010B504462068C06820F040002168C860BE
:10424000202084F841002046FEF78CFC002010BDA1
:10425000F8B5044694F84200222875D1A068B0F55C
:10426000805F0CD1206950B90025A66A206840689B
:10427000C0F308003080A06A801CA06215E0A56A27
:104280000026A068B0F5805F03D0A06828B9206937
:1042900018B920684068287004E02068406800F081
:1042A0007F002870A06A401CA062E08D401E80B292
:1042B000E085002846D12068C06820F020002168F1
:1042C000C8602068C06820F480702168C8602068D9
:1042D000406920F0010021684861202084F84200F4
:1042E00000206063206B012826D10020206300BFDE
:1042F00000BF21680C3151E8001F21F01000216837
:104300000C3141E80002002AF3D100BF20680068A8
:1043100000F0100010280AD100BF00200090206893
:104320000068009020684068009000BF00BFA18D29
:104330002046FEF78CF902E02046FEF7B9FB00208C
:10434000F8BD01E00020FBE70220F9E770B5044664
:104350002168096921F44051E26811432268116122
:104360002269A1681143626941EA02052168C968AE
:1043700041F20C62914329432268D1602168496966
:1043800021F44071A2691143226851612D4A2168CC
:10439000914202D1FDF7A0FA01E0FDF78DFA00EBA2
:1043A000C00101EB001162689200B1FBF2F100EB79
:1043B000C00202EB001263689B00B2FBF3F26423BD
:1043C000B2FBF3F202EBC20303EB0212A1EB820198
:1043D000322202EB01116422B1FBF2F101F0F00193
:1043E00000EBC00202EB001263689B00B2FBF3F229
:1043F0006423B2FBF3F201EB021200EBC00101EB0C
:10440000001163689B00B1FBF3F100EBC00303EB09
:1044100000136668B600B3FBF6F36426B3FBF6F34D
:1044200003EBC30606EB0313A1EB8301322303EB7B
:1044300001116423B1FBF3F101F00F011144226873
:10444000916070BD00380140014691F8410021287B
:1044500028D18868B0F5805F0BD1086948B90A6A2D
:104460001088C0F308000B685860086A801C086256
:1044700005E00B6A581C086218780B685860C88CF5
:10448000401E80B2C88458B90868C06820F0800017
:104490000B68D8600868C06840F040000B68D860BE
:1044A000002070470220FCE72DE9F04104460D464C
:1044B00017469846069E34E0701C88B32EB1FCF770
:1044C000FBFFA0EB0800B0422BD900BF00BF216862
:1044D0000C3151E8001F21F4D07021680C3141E803
:1044E0000002002AF3D100BF00BF00BF21681431D1
:1044F00051E8001F21F001002168143141E8000259
:10450000002AF3D100BF202084F8410084F8420043
:1045100000BF002084F8400000BF0320BDE8F08108
:10452000FFE7206800682840A84201D1012000E090
:104530000020B842C0D00020F0E7000010B50248CB
:10454000FEF788F810BD0000E803002000BFFEE77A
:1045500002480068C0F30220704700000CED00E044
:1045600010B5002804DB0A07130E054A135406E0B1
:104570000A07140E034A00F00F031B1FD45410BD8A
:1045800000E400E018ED00E0EFF311807047EFF376
:1045900005807047EFF31080704770B50446002522
:1045A00008E02168481C20600878303805EB850158
:1045B00000EB41052168087800F004F80028F0D1EC
:1045C000284670BD0146302903DB392901DC012072
:1045D00070470020FCE730380A2801D201207047DC
:1045E0000020704710B54021074801F0E3FA00228F
:1045F0001E21064826F0DEFF0549086002F000FE95
:1046000000200449087010BDDC190020CD7200089C
:10461000E0010020DC01002030B50346B1F9004084
:10462000B2F90050AC4202DDB1F9004001E0B2F94C
:1046300000401C80B1F90240B2F90250AC4202DDE8
:10464000B1F9024001E0B2F902405C80B1F90440E6
:10465000B2F90450AC4202DAB1F9044001E0B2F917
:1046600004409C80B1F90640B2F90650AC4202DA2F
:10467000B1F9064001E0B2F90640DC800120B3F94F
:104680000040B3F90450AC4205DCB3F90240B3F981
:104690000650AC4200DD002030BDF8B504460D46A2
:1046A00016460027B4F90000B5F90010884212DB65
:1046B000B4F90200B5F9021088420CDBB4F9040029
:1046C000B5F90410884206DCB4F90600B5F9061005
:1046D000884200DC01270FB90020F8BD0EB9012087
:1046E000FBE72088ADF800006088ADF80200324694
:1046F0006946284600F0A7F808B90020EDE7A08831
:10470000ADF800006088ADF80200324669462846E0
:1047100000F099F808B90020DFE72088ADF8000024
:10472000E088ADF8020032466946284600F08BF872
:1047300008B90020D1E7A088ADF80000E088ADF806
:10474000020032466946284600F07DF808B900208C
:10475000C3E70120C1E70246B2F90000B1F9043015
:10476000984213DCB2F90400B1F9003098420DDB35
:10477000B2F90200B1F90630984207DCB2F906003E
:10478000B1F90230984201DB012070470020FCE7BC
:10479000F8B504460D461646B4F90400B5F9001004
:1047A000884211DBB4F90600B5F9021088420BDB30
:1047B000B4F90000B5F90410884205DCB4F9020030
:1047C000B5F90610884201DD0120F8BD0EB90020C0
:1047D000FBE72088ADF800006088ADF802003246A3
:1047E0006946284600F02FF808B10020EDE7A088C0
:1047F000ADF800006088ADF80200324669462846F0
:1048000000F021F808B10020DFE72088ADF80000B3
:10481000E088ADF8020032466946284600F013F8F9
:1048200008B10020D1E7A088ADF80000E088ADF81D
:10483000020032466946284600F005F808B100201B
:10484000C3E70120C1E72DE9FC5F05460E4614468B
:104850004FF0000AB6F90000B5F90010884213DBEA
:10486000B6F90000B5F9041088420DDCB6F9020073
:10487000B5F90210884207DBB6F90200B5F9061057
:10488000884201DC4FF0010ABAF1000F02D100208A
:10489000BDE8FC9F002C01DC0120F9E7284612F05E
:1048A00022FD834600EBDB704710284612F093FC94
:1048B000834600EBDB704FEA6008474501DA384673
:1048C00000E0404681464C4500DD4C462888ADF866
:1048D00000002888204400B2ADF804006888ADF8D4
:1048E00002006888204400B2ADF80600002231467C
:1048F0006846FFF7A8FF80B1BDF80400204400B26D
:10490000ADF80400BDF80600204400B2ADF8060082
:104910003146684623F002FABAE7E888001B00B285
:10492000ADF80200E888ADF806000022314668467E
:10493000FFF789FF80B1BDF80400204400B2ADF854
:104940000400BDF80200001B00B2ADF802003146C1
:10495000684623F0E3F99BE7A888001B00B2ADF896
:104960000000A888ADF80400002231466846FFF731
:104970006AFF80B1BDF80000001B00B2ADF8000076
:10498000BDF80200001B00B2ADF8020031466846D7
:1049900023F0C4F97CE76888ADF8020068882044F9
:1049A00000B2ADF80600002231466846FFF74BFF23
:1049B00080B1BDF80000001B00B2ADF80000BDF8EA
:1049C0000600204400B2ADF806003146684623F0E8
:1049D000A5F95DE701205BE710B5B1F90030B2F948
:1049E0000040A34202DAB1F9003001E0B2F9003030
:1049F0000380B1F90230B2F90240A34202DAB1F900
:104A0000023001E0B2F902304380B1F90430B2F96A
:104A10000440A34202DDB1F9043001E0B2F90430F0
:104A20008380B1F90630B2F90640A34202DDB1F944
:104A3000063001E0B2F90630C38010BD2DE9FF4118
:104A4000044626F03FFD05460020039034B1474957
:104A5000E0680860204626F0C5FE03E015F094FAF1
:104A60004249086041490968086923F0B5F83F48A0
:104A70000068406920B13D490968486923F0ACF8F5
:104A80003A490968C86923F0A7F838490968086AEB
:104A900023F0A2F835480068006940B90020334986
:104AA0000968A1F8500100BF00BFBDE8FF8123F0F5
:104AB00031FC23F077FB2D480068B0F85001002846
:104AC0004BD02A4800680068007CC0F34000E8B181
:104AD0002648006815F0D6FA401E06B22348006842
:104AE00015F06AFA401E07B23B460022114601A8A3
:104AF000009612F03DFC01A81C4909680968896B01
:104B000048601A48006805F0F3FB00BF4FF480715D
:104B10001648006830301DF0ACFA202113480068B8
:104B200000F598701DF0A5FA002010490968A1F859
:104B30005001284626F0B8FC03900C480068006835
:104B4000406A50B109490968086808490968096854
:104B50004B6A07490A68039998471CF0C1FF00F0A7
:104B60003FF800F007F800BF9FE700009800002022
:104B70009400002010B5002416E0C4EBC4000C49DA
:104B800051F8200030B1C4EBC401094A52F82100A9
:104B90001DF058F8C4EBC401054A02EB81001C214A
:104BA0001DF067FA601CC4B2042CE6DB10BD0000E7
:104BB000B81A00200146094A10680BE042688A4290
:104BC00002D002688A4204D1027E22F00102521C05
:104BD000027640690028F1D1704700006C00002087
:104BE0007047000010B50421014800F0E3FF10BD3C
:104BF000D019002010B51C21014800F0DBFF10BDCA
:104C0000E81900202DE9FF4F8BB004469A46199D04
:104C1000BAF1000F11D11898B0F5807F0DD10020A6
:104C2000208060800C98401E00B2A0800D98401E2D
:104C300000B2E0800FB0BDE8F08FB5F9000040424F
:104C4000189948430121C1EB202000B22080B5F91A
:104C500002004042189948430121C1EB202000B2D4
:104C60006080B5F900100C98401A18994843022149
:104C700001EB202000B2A080B5F902100D98401A77
:104C800018994843022101EB202000B2E080BAF1DC
:104C9000000F14D120882988084400B22080608841
:104CA0006988084400B26080A0882988084400B25E
:104CB000A080E0886988084400B2E080BAE70A2052
:104CC0009AFBF0F00A900A98401C09900A9800EBB1
:104CD0008000AAEB400B0A9800B226F009FF08906A
:104CE000099800B226F004FF07900A985A3000B2E3
:104CF00026F0FEFE069009985A3000B226F0F8FE23
:104D00000590CBF10A0108984143079800FB0B106E
:104D10000A2190FBF1F6CBF10A0106984143059870
:104D200000FB0B100A2190FBF1F776117F11B4F90B
:104D30000080B4F9029007FB08F006FB19002988EF
:104D400001EBA02000B2ADF8100006FB08F007FB55
:104D50000900698801EBA02000B2ADF81200B4F997
:104D60000480B4F9029007FB08F006FB19002988BB
:104D700001EBA02000B2ADF80C0006FB08F007FB29
:104D80000900698801EBA02000B2ADF80E00B4F96B
:104D90000080B4F9069007FB08F006FB190029888B
:104DA00001EBA02000B2ADF8080006FB08F007FBFD
:104DB0000900698801EBA02000B2ADF80A00B4F93F
:104DC0000480B4F9069007FB08F006FB1900298857
:104DD00001EBA02000B2ADF8040006FB08F007FBD1
:104DE0000900698801EBA02000B2ADF80600BDF90A
:104DF0000800BDF91010884202DABDF9080001E090
:104E0000BDF91000BDF90410BDF90C20914202DA81
:104E1000BDF9041001E0BDF90C1088420BDABDF9B0
:104E20000800BDF91010884202DABDF908000DE053
:104E3000BDF910000AE0BDF90400BDF90C1088426C
:104E400002DABDF9040001E0BDF90C002080BDF9D3
:104E50000800BDF91010884202DDBDF9080001E02C
:104E6000BDF91000BDF90410BDF90C20914202DD1E
:104E7000BDF9041001E0BDF90C1088420BDDBDF94D
:104E80000800BDF91010884202DDBDF908000DE0F0
:104E9000BDF910000AE0BDF90400BDF90C1088420C
:104EA00002DDBDF9040001E0BDF90C00A080BDF9F0
:104EB0000A00BDF91210884202DABDF90A0001E0C9
:104EC000BDF91200BDF90610BDF90E20914202DABB
:104ED000BDF9061001E0BDF90E1088420BDABDF9EC
:104EE0000A00BDF91210884202DABDF90A000DE08D
:104EF000BDF912000AE0BDF90600BDF90E108842A6
:104F000002DABDF9060001E0BDF90E006080BDF9CE
:104F10000A00BDF91210884202DDBDF90A0001E065
:104F2000BDF91200BDF90610BDF90E20914202DD57
:104F3000BDF9061001E0BDF90E1088420BDDBDF988
:104F40000A00BDF91210884202DDBDF90A000DE029
:104F5000BDF912000AE0BDF90600BDF90E10884245
:104F600002DDBDF9060001E0BDF90E00E08000BFE2
:104F700060E62DE9F74F86B0044620680590B4F945
:104F800008100798A0EB0108B4F90A100898A0EBE4
:104F90000109E089B0F5807F13D1206B00FB08F098
:104FA000E16A01FB1901606A00EBA10BE06A00FBFA
:104FB00008F0216B01FB0901A06A00EBA10004903D
:104FC0002FE0A08980B9A06B00FB08F04FEA6018C1
:104FD000A06B00FB09F04FEA6019606A00EB080B58
:104FE000A06A484404901CE0A06B00FB08F04FEA64
:104FF0006018A06B00FB09F04FEA6019206B00FB02
:1050000008F0E16A01FB1901606A00EBA12BE06A7C
:1050100000FB08F0216B01FB0901A06A00EBA12055
:1050200004904FEA2B2604980712B4F90400B0420A
:1050300003DC002009B0BDE8F08F002E01DA00206B
:10504000F8E7B4F90600B84201DC0020F2E7002FCF
:1050500001DA0020EEE73420005DC0F3800050B399
:105060003420005DC0F3400078B90225B4F9040093
:105070007843684306FB050A059800EB0A012A46B7
:1050800004F114001CF0A3FF2CE00325B4F9040084
:105090007843684306FB050A6A1E059800EB0A017F
:1050A00004F114001CF093FF0AEB0500401E059963
:1050B000095CA17516E04FF0000A0025208A03461E
:1050C0003AB231B2019004F1180019F05FFB02907E
:1050D000BDF80800A0823AB231B204F1180019F00C
:1050E000B5FAA0753420005D00F00100B0B14FF4B6
:1050F0007F40002100F47C4241EA5211C0F3C40217
:1051000011430191BDF8042011460291A08ABDF817
:105110000810884201D100208CE700BFE07C08B96C
:10512000012087E70FFA8BF1A187049801B2E1878C
:1051300031B24020015339B242200153C4F844A097
:1051400084F84850204600F003F80390039871E774
:105150002DE9F04F8DB00446D4F8009094F83C004F
:105160000C9094F83E000B900C9870280BDA4FF0DE
:10517000FF35B4F940002844002800DA00250C98D7
:105180008030C7B213E00C9890280EDD0125B4F9E9
:1051900040002844B4F90410884200DB00250C9834
:1051A000C0F1FF008030C7B201E00025FF270B9857
:1051B00070280CDA4FF0FF36B4F942003044002872
:1051C00000DA00260B98803000F0FF0815E00B98FD
:1051D00090280FDD0126B4F942003044B4F90610DE
:1051E000884200DB00260B98C0F1FF00803000F001
:1051F000FF0802E000264FF0FF08A08A0A90A07D79
:10520000069000200590049003903420005DC0F3C8
:10521000800000285BD094F84800626C00FB0520F9
:1052200000EB0901022209A81CF0D1FEB4F9040028
:1052300094F848205043626C00FB062000EB090103
:10524000022208A81CF0C3FEB4F9040094F8482018
:105250005043626C00FB062294F8480000FB0520D6
:1052600000EB0901022207A81CF0B1FE3420005D0A
:10527000C0F3400000287ED094F84800616C00FB29
:1052800005110844401E19F800000590B4F9040007
:1052900094F848104843616C00FB061194F84800EC
:1052A0000844401E19F800000490B4F9040094F872
:1052B00048104843616C00FB061194F8480000FB5D
:1052C00005110844401E19F80000039053E0208A9D
:1052D0000090B4F942204020005B284401B204F160
:1052E0001800009B19F052FA0990208A0090422081
:1052F000005B304402B2B4F9401004F11800009B86
:1053000019F044FA0890208A00904220005B304453
:1053100002B24020005B284401B204F11800009B57
:1053200019F034FA07903420005DC0F3400010B348
:10533000B4F942204020005B284401B204F1180077
:1053400019F084F905904220005B304402B2B4F9B0
:10535000401004F1180019F079F904904220005B24
:10536000304402B24020005B284401B204F118002E
:1053700019F06CF90390BA46BB463420005DC0F3C7
:105380004000E0B306987843C7F1FF0C059B03FB90
:105390000C00C0F3072104987843C7F1FF0C039B6E
:1053A00003FB0C00C0F3072201FB08F0C8F1FF0368
:1053B00002FB0300030AA375022905DC022A03DCB1
:1053C00000200DB0BDE8F08F022901DC4FF000088D
:1053D000022A01DC4FF0FF080698022801DC4FF09A
:1053E000000A0598022801DC4FF0FF0A0498022801
:1053F00001DC4FF0000B0398022803DC00E002E020
:105400004FF0FF0B03E0BA46BB46FF21A175BAF18E
:10541000000F02D1099802900BE0BAF1FF0F02D100
:105420000A98029005E05246DDE9091014F046F8AA
:105430000290BBF1000F02D1079801900BE0BBF185
:10544000FF0F02D10898019005E05A46DDE90710E8
:1054500014F034F80190B8F1000F03D1BDF8040046
:10546000A0820FE0B8F1FF0F03D1BDF80800A082C1
:1054700008E04246DDE9011014F020F80090BDF884
:105480000000A08201209CE72DE9F05F0446B4F9FA
:10549000080001026162B4F90A000102A162B4F9D4
:1054A0000C000A2190FBF1F56F1CB4F90C0005EB20
:1054B0008501A0EB4106684200B226F019FB804648
:1054C000784200B226F014FB8146C5F15A0000B2C2
:1054D00026F00EFB8246C7F15A0000B226F008FB08
:1054E0008346C6F10A0000FB08F009FB06000A210A
:1054F00090FBF1F1E162C6F10A0000FB0AF00BFB40
:1055000006000A2190FBF1F12163E06A4111E1629A
:10551000206B41112163A07C19F047FA3421095D09
:1055200060F3000134200155A07C19F021FA3421E8
:10553000095D60F3410134200155A07C042805D0A9
:10554000A07C052802D0A07C062807D13420005D6D
:1055500020F00400001D3421085505E03420005DD2
:1055600020F004013420015521682162A06920F057
:10557000E000A061A17CA06961F30400A061A188A2
:10558000A06961F39420A061E188A06961F35F5094
:10559000A061E08900EBD071491001F5001191FB89
:1055A000F0F2A263FF21A175208AA082BDE8F09FDE
:1055B0002DE9F743054616460024134C25F082FFDB
:1055C0008046334629462046019A19F09DFE07463B
:1055D0005FB900BF00BF2C2120461CF04AFD4FF0F0
:1055E0000040A0620020BDE8FE830020A062E069C8
:1055F00018B9404625F058FFE061E06908B901207C
:10560000E0612046EFE700000C1A002010B51421DD
:10561000114800F0CFFA19F029FE044600BF1CB96A
:1056200000BF00BF00BFFEE700BF14B900BF00BF4E
:1056300010BD0A49204619F001FF0949204619F01A
:10564000FFFE0849204619F0FDFE0749204619F0E3
:10565000F3FE00BFECE70000F419002089EA01081E
:105660005DEF010879F1010851EA010870B50446BF
:105670000D46102128461CF0FCFC2068007801280B
:1056800004D1208A2880608A68800CE02068007835
:10569000022802D1E068686005E0206800780428EC
:1056A00001D10A2068602068406820B1206829463E
:1056B0004268904701E000BF00BF70BD2DE9FE4386
:1056C0000446A66AEEB9A18A208A084401B2A182E2
:1056D000E18A608A084401B2E18220460CF08BFC2A
:1056E00006460EB9BDE8FE8320460FF0ADFD002250
:1056F0000921304618F024F96078C0F3400000B169
:10570000F0E7208A10B9608A002870D0002002904B
:10571000019094F83C0000F00F00032812D13046AD
:105720001EF08AFD074630461EF00EFD804603201F
:105730000090B4F910103B46424630460BF020FF73
:10574000029012E030461EF0F9FD074630461EF08A
:105750006DFC80460C200090B4F9121043463A4686
:1057600030460BF00DFF019000BF30461EF0BEFC2E
:10577000054605F0010028B9BDF90800002801DD43
:105780000020029005F0020028B9BDF908000028A9
:1057900001DA0020029005F0040028B9BDF90400E8
:1057A000002801DD0020019005F0080028B9BDF9AE
:1057B0000400002801DA0020019001AA02A9204675
:1057C00029F0D6F90023BDF90420BDF908103046B0
:1057D00021F092FCA08ABDF80810084401B2A18211
:1057E000E08ABDF80410084401B2E18200BF00BFA6
:1057F00078E72DE9F84F0446D4F828B0BBF1000F44
:1058000001D1BDE8F88F94F83C0000F00F0000B91A
:10581000F7E71AF0A9F906463068477E4021584656
:1058200020F094F910B900216183218358461EF0BD
:1058300071FD804658461EF077FD054694F83C0001
:1058400000F00F000C2843D1002121831DBBB4F9C7
:105850001A00C7F164014843642190FBF1F001B2E2
:10586000618358461EF0E2FB814658461EF066FDF5
:1058700082460C200090B4F91A104B465246584606
:105880000BF07EFE6083B4F91A20002319465846B7
:1058900021F032FC69E0204629F0C1F90090002196
:1058A00061836A46204629F063F9BDF9003041F66C
:1058B000FF72514258460CF047FD8146BDF800008A
:1058C000484402B201230021584621F015FC4CE067
:1058D00094F83C0000F00F00032846D100216183BA
:1058E000B8F1000F23D1B4F91800C7F1640148439F
:1058F000642190FBF1F001B2218358461EF024FC94
:10590000814658461EF098FC824603200090B4F968
:10591000181053464A4658460BF032FE2083B4F91D
:10592000181000231A46584621F0E6FB1DE02046D9
:1059300029F05AF90090002121830022694620466F
:1059400029F016F9BDF9003041F6FF725142584670
:105950000CF060FC8146BDF80000484401B2012310
:105960000022584621F0C8FB00BF208B002860D1E0
:10597000608B00285DD11DBB58461EF0DFFC8146C0
:1059800058461EF053FB8246B9F1000F02DCBAF113
:10599000000F14DDB9F1000F06DA01234A46002199
:1059A000584621F0A9FB0AE0BAF1000F07DA0123FB
:1059B000CAF1000002B20021584621F09DFB00BF51
:1059C000B8F1000F23D158461EF0BEFB8146584661
:1059D0001EF032FC8246B9F1000F02DCBAF1000F72
:1059E00014DDB9F1000F06DA0123002249465846BA
:1059F00021F082FB0AE0BAF1000F07DA012300224E
:105A0000CAF1000001B2584621F076FB00BF3246D1
:105A10000A21584617F094FF6078C0F3400000B1A7
:105A2000EFE694F83C0020F00F0184F83C100021D0
:105A3000A16200BFE5E62DE9FF4104460F4614B917
:105A400014F0A2FA04460CB9BDE8FF811FB900208A
:105A5000A4F85001F8E70020ADF80800ADF80A00FE
:105A6000204614F0A9FA401E00B2ADF80C00204602
:105A700014F008FB401E00B2ADF80E0002AA394631
:105A80006846FEF7C9FD064606B9DDE72068007CDA
:105A9000C0F3400060B10298206303986063012066
:105AA000A4F85001606810B1606825F0A7FECBE74C
:105AB0002068806918B1206869468269904700258E
:105AC0000BE004F1300000EBC50100226846FEF750
:105AD000E4FD00B1B8E7681C85B2B4F85001A842F3
